{
  "transactions": [
    {
      "hash": "0x16057232c174fbf62a1ab594ad344e3303816cff045f14fe015cf6bac1b102ed",
      "transactionType": "CREATE",
      "contractName": "MockERC20",
      "contractAddress": "0xf66423533d8bA9ce2ACDf2F5F07F4fb9106e9AFb",
      "function": null,
      "arguments": [
        "USDC",
        "USDC"
      ],
      "transaction": {
        "type": "0x02",
        "from": "0xd0ee0f8c279500804098d364b107bd876cad7080",
        "gas": "0xad86d",
        "value": "0x0",
        "data": "0x60806040523480156200001157600080fd5b5060405162000ada38038062000ada833981016040819052620000349162000123565b818160036200004483826200021c565b5060046200005382826200021c565b5050505050620002e8565b634e487b7160e01b600052604160045260246000fd5b600082601f8301126200008657600080fd5b81516001600160401b0380821115620000a357620000a36200005e565b604051601f8301601f19908116603f01168101908282118183101715620000ce57620000ce6200005e565b81604052838152602092508683858801011115620000eb57600080fd5b600091505b838210156200010f5785820183015181830184015290820190620000f0565b600093810190920192909252949350505050565b600080604083850312156200013757600080fd5b82516001600160401b03808211156200014f57600080fd5b6200015d8683870162000074565b935060208501519150808211156200017457600080fd5b50620001838582860162000074565b9150509250929050565b600181811c90821680620001a257607f821691505b602082108103620001c357634e487b7160e01b600052602260045260246000fd5b50919050565b601f8211156200021757600081815260208120601f850160051c81016020861015620001f25750805b601f850160051c820191505b818110156200021357828155600101620001fe565b5050505b505050565b81516001600160401b038111156200023857620002386200005e565b62000250816200024984546200018d565b84620001c9565b602080601f8311600181146200028857600084156200026f5750858301515b600019600386901b1c1916600185901b17855562000213565b600085815260208120601f198616915b82811015620002b95788860151825594840194600190910190840162000298565b5085821015620002d85787850151600019600388901b60f8161c191681555b5050505050600190811b01905550565b6107e280620002f86000396000f3fe608060405234801561001057600080fd5b50600436106100a95760003560e01c806340c10f191161007157806340c10f191461012357806370a082311461013857806395d89b41146101615780639dc29fac14610169578063a9059cbb1461017c578063dd62ed3e1461018f57600080fd5b806306fdde03146100ae578063095ea7b3146100cc57806318160ddd146100ef57806323b872dd14610101578063313ce56714610114575b600080fd5b6100b66101c8565b6040516100c3919061062c565b60405180910390f35b6100df6100da366004610696565b61025a565b60405190151581526020016100c3565b6002545b6040519081526020016100c3565b6100df61010f3660046106c0565b610274565b604051601281526020016100c3565b610136610131366004610696565b610298565b005b6100f36101463660046106fc565b6001600160a01b031660009081526020819052604090205490565b6100b66102a6565b610136610177366004610696565b6102b5565b6100df61018a366004610696565b6102bf565b6100f361019d36600461071e565b6001600160a01b03918216600090815260016020908152604080832093909416825291909152205490565b6060600380546101d790610751565b80601f016020809104026020016040519081016040528092919081815260200182805461020390610751565b80156102505780601f1061022557610100808354040283529160200191610250565b820191906000526020600020905b81548152906001019060200180831161023357829003601f168201915b5050505050905090565b6000336102688185856102cd565b60019150505b92915050565b6000336102828582856102df565b61028d858585610362565b506001949350505050565b6102a282826103c1565b5050565b6060600480546101d790610751565b6102a282826103f7565b600033610268818585610362565b6102da838383600161042d565b505050565b6001600160a01b03838116600090815260016020908152604080832093861683529290522054600019811461035c578181101561034d57604051637dc7a0d960e11b81526001600160a01b038416600482015260248101829052604481018390526064015b60405180910390fd5b61035c8484848403600061042d565b50505050565b6001600160a01b03831661038c57604051634b637e8f60e11b815260006004820152602401610344565b6001600160a01b0382166103b65760405163ec442f0560e01b815260006004820152602401610344565b6102da838383610502565b6001600160a01b0382166103eb5760405163ec442f0560e01b815260006004820152602401610344565b6102a260008383610502565b6001600160a01b03821661042157604051634b637e8f60e11b815260006004820152602401610344565b6102a282600083610502565b6001600160a01b0384166104575760405163e602df0560e01b815260006004820152602401610344565b6001600160a01b03831661048157604051634a1406b160e11b815260006004820152602401610344565b6001600160a01b038085166000908152600160209081526040808320938716835292905220829055801561035c57826001600160a01b0316846001600160a01b03167f8c5be1e5ebec7d5bd14f71427d1e84f3dd0314c0f7b2291e5b200ac8c7c3b925846040516104f491815260200190565b60405180910390a350505050565b6001600160a01b03831661052d578060026000828254610522919061078b565b9091555061059f9050565b6001600160a01b038316600090815260208190526040902054818110156105805760405163391434e360e21b81526001600160a01b03851660048201526024810182905260448101839052606401610344565b6001600160a01b03841660009081526020819052604090209082900390555b6001600160a01b0382166105bb576002805482900390556105da565b6001600160a01b03821660009081526020819052604090208054820190555b816001600160a01b0316836001600160a01b03167fddf252ad1be2c89b69c2b068fc378daa952ba7f163c4a11628f55a4df523b3ef8360405161061f91815260200190565b60405180910390a3505050565b600060208083528351808285015260005b818110156106595785810183015185820160400152820161063d565b506000604082860101526040601f19601f8301168501019250505092915050565b80356001600160a01b038116811461069157600080fd5b919050565b600080604083850312156106a957600080fd5b6106b28361067a565b946020939093013593505050565b6000806000606084860312156106d557600080fd5b6106de8461067a565b92506106ec6020850161067a565b9150604084013590509250925092565b60006020828403121561070e57600080fd5b6107178261067a565b9392505050565b6000806040838503121561073157600080fd5b61073a8361067a565b91506107486020840161067a565b90509250929050565b600181811c9082168061076557607f821691505b60208210810361078557634e487b7160e01b600052602260045260246000fd5b50919050565b8082018082111561026e57634e487b7160e01b600052601160045260246000fdfea2646970667358221220e3bca9cddce75226594e13dd4303825299231e2f2a306e3952e6b6d33f1d63d364736f6c63430008140033000000000000000000000000000000000000000000000000000000000000004000000000000000000000000000000000000000000000000000000000000000800000000000000000000000000000000000000000000000000000000000000004555344430000000000000000000000000000000000000000000000000000000000000000000000000000000000000000000000000000000000000000000000045553444300000000000000000000000000000000000000000000000000000000",
        "nonce": "0x8",
        "accessList": []
      },
      "additionalContracts": [],
      "isFixedGasLimit": false
    },
    {
      "hash": "0x7966b0c673bf3ff52cf548c742d37def51fbb604b1cc34d56d77c10b20cb59ec",
      "transactionType": "CALL",
      "contractName": "MockERC20",
      "contractAddress": "0xf66423533d8bA9ce2ACDf2F5F07F4fb9106e9AFb",
      "function": "mint(address,uint256)",
      "arguments": [
        "0xd0ee0F8c279500804098d364b107bd876caD7080",
        "100000000000000000000000"
      ],
      "transaction": {
        "type": "0x02",
        "from": "0xd0ee0f8c279500804098d364b107bd876cad7080",
        "to": "0xf66423533d8ba9ce2acdf2f5f07f4fb9106e9afb",
        "gas": "0x186f3",
        "value": "0x0",
        "data": "0x40c10f19000000000000000000000000d0ee0f8c279500804098d364b107bd876cad708000000000000000000000000000000000000000000000152d02c7e14af6800000",
        "nonce": "0x9",
        "accessList": []
      },
      "additionalContracts": [],
      "isFixedGasLimit": false
    },
    {
      "hash": "0xf8fa612abaf4519f22c2a96122f425b6bed8e83f034ce7b7849f2a33814f72f7",
      "transactionType": "CREATE",
      "contractName": "MockERC20",
      "contractAddress": "0xC6FA47f3892bdcBd1cA002200aDFef172EC0699E",
      "function": null,
      "arguments": [
        "USDT",
        "USDT"
      ],
      "transaction": {
        "type": "0x02",
        "from": "0xd0ee0f8c279500804098d364b107bd876cad7080",
        "gas": "0xad86d",
        "value": "0x0",
        "data": "0x60806040523480156200001157600080fd5b5060405162000ada38038062000ada833981016040819052620000349162000123565b818160036200004483826200021c565b5060046200005382826200021c565b5050505050620002e8565b634e487b7160e01b600052604160045260246000fd5b600082601f8301126200008657600080fd5b81516001600160401b0380821115620000a357620000a36200005e565b604051601f8301601f19908116603f01168101908282118183101715620000ce57620000ce6200005e565b81604052838152602092508683858801011115620000eb57600080fd5b600091505b838210156200010f5785820183015181830184015290820190620000f0565b600093810190920192909252949350505050565b600080604083850312156200013757600080fd5b82516001600160401b03808211156200014f57600080fd5b6200015d8683870162000074565b935060208501519150808211156200017457600080fd5b50620001838582860162000074565b9150509250929050565b600181811c90821680620001a257607f821691505b602082108103620001c357634e487b7160e01b600052602260045260246000fd5b50919050565b601f8211156200021757600081815260208120601f850160051c81016020861015620001f25750805b601f850160051c820191505b818110156200021357828155600101620001fe565b5050505b505050565b81516001600160401b038111156200023857620002386200005e565b62000250816200024984546200018d565b84620001c9565b602080601f8311600181146200028857600084156200026f5750858301515b600019600386901b1c1916600185901b17855562000213565b600085815260208120601f198616915b82811015620002b95788860151825594840194600190910190840162000298565b5085821015620002d85787850151600019600388901b60f8161c191681555b5050505050600190811b01905550565b6107e280620002f86000396000f3fe608060405234801561001057600080fd5b50600436106100a95760003560e01c806340c10f191161007157806340c10f191461012357806370a082311461013857806395d89b41146101615780639dc29fac14610169578063a9059cbb1461017c578063dd62ed3e1461018f57600080fd5b806306fdde03146100ae578063095ea7b3146100cc57806318160ddd146100ef57806323b872dd14610101578063313ce56714610114575b600080fd5b6100b66101c8565b6040516100c3919061062c565b60405180910390f35b6100df6100da366004610696565b61025a565b60405190151581526020016100c3565b6002545b6040519081526020016100c3565b6100df61010f3660046106c0565b610274565b604051601281526020016100c3565b610136610131366004610696565b610298565b005b6100f36101463660046106fc565b6001600160a01b031660009081526020819052604090205490565b6100b66102a6565b610136610177366004610696565b6102b5565b6100df61018a366004610696565b6102bf565b6100f361019d36600461071e565b6001600160a01b03918216600090815260016020908152604080832093909416825291909152205490565b6060600380546101d790610751565b80601f016020809104026020016040519081016040528092919081815260200182805461020390610751565b80156102505780601f1061022557610100808354040283529160200191610250565b820191906000526020600020905b81548152906001019060200180831161023357829003601f168201915b5050505050905090565b6000336102688185856102cd565b60019150505b92915050565b6000336102828582856102df565b61028d858585610362565b506001949350505050565b6102a282826103c1565b5050565b6060600480546101d790610751565b6102a282826103f7565b600033610268818585610362565b6102da838383600161042d565b505050565b6001600160a01b03838116600090815260016020908152604080832093861683529290522054600019811461035c578181101561034d57604051637dc7a0d960e11b81526001600160a01b038416600482015260248101829052604481018390526064015b60405180910390fd5b61035c8484848403600061042d565b50505050565b6001600160a01b03831661038c57604051634b637e8f60e11b815260006004820152602401610344565b6001600160a01b0382166103b65760405163ec442f0560e01b815260006004820152602401610344565b6102da838383610502565b6001600160a01b0382166103eb5760405163ec442f0560e01b815260006004820152602401610344565b6102a260008383610502565b6001600160a01b03821661042157604051634b637e8f60e11b815260006004820152602401610344565b6102a282600083610502565b6001600160a01b0384166104575760405163e602df0560e01b815260006004820152602401610344565b6001600160a01b03831661048157604051634a1406b160e11b815260006004820152602401610344565b6001600160a01b038085166000908152600160209081526040808320938716835292905220829055801561035c57826001600160a01b0316846001600160a01b03167f8c5be1e5ebec7d5bd14f71427d1e84f3dd0314c0f7b2291e5b200ac8c7c3b925846040516104f491815260200190565b60405180910390a350505050565b6001600160a01b03831661052d578060026000828254610522919061078b565b9091555061059f9050565b6001600160a01b038316600090815260208190526040902054818110156105805760405163391434e360e21b81526001600160a01b03851660048201526024810182905260448101839052606401610344565b6001600160a01b03841660009081526020819052604090209082900390555b6001600160a01b0382166105bb576002805482900390556105da565b6001600160a01b03821660009081526020819052604090208054820190555b816001600160a01b0316836001600160a01b03167fddf252ad1be2c89b69c2b068fc378daa952ba7f163c4a11628f55a4df523b3ef8360405161061f91815260200190565b60405180910390a3505050565b600060208083528351808285015260005b818110156106595785810183015185820160400152820161063d565b506000604082860101526040601f19601f8301168501019250505092915050565b80356001600160a01b038116811461069157600080fd5b919050565b600080604083850312156106a957600080fd5b6106b28361067a565b946020939093013593505050565b6000806000606084860312156106d557600080fd5b6106de8461067a565b92506106ec6020850161067a565b9150604084013590509250925092565b60006020828403121561070e57600080fd5b6107178261067a565b9392505050565b6000806040838503121561073157600080fd5b61073a8361067a565b91506107486020840161067a565b90509250929050565b600181811c9082168061076557607f821691505b60208210810361078557634e487b7160e01b600052602260045260246000fd5b50919050565b8082018082111561026e57634e487b7160e01b600052601160045260246000fdfea2646970667358221220e3bca9cddce75226594e13dd4303825299231e2f2a306e3952e6b6d33f1d63d364736f6c63430008140033000000000000000000000000000000000000000000000000000000000000004000000000000000000000000000000000000000000000000000000000000000800000000000000000000000000000000000000000000000000000000000000004555344540000000000000000000000000000000000000000000000000000000000000000000000000000000000000000000000000000000000000000000000045553445400000000000000000000000000000000000000000000000000000000",
        "nonce": "0xa",
        "accessList": []
      },
      "additionalContracts": [],
      "isFixedGasLimit": false
    },
    {
      "hash": "0xfcf4ee20b4a52ab00cfbef36da25e75ceef075fad6cb72bb668d69322bbc910e",
      "transactionType": "CALL",
      "contractName": "MockERC20",
      "contractAddress": "0xC6FA47f3892bdcBd1cA002200aDFef172EC0699E",
      "function": "mint(address,uint256)",
      "arguments": [
        "0xd0ee0F8c279500804098d364b107bd876caD7080",
        "100000000000000000000000"
      ],
      "transaction": {
        "type": "0x02",
        "from": "0xd0ee0f8c279500804098d364b107bd876cad7080",
        "to": "0xc6fa47f3892bdcbd1ca002200adfef172ec0699e",
        "gas": "0x186f3",
        "value": "0x0",
        "data": "0x40c10f19000000000000000000000000d0ee0f8c279500804098d364b107bd876cad708000000000000000000000000000000000000000000000152d02c7e14af6800000",
        "nonce": "0xb",
        "accessList": []
      },
      "additionalContracts": [],
      "isFixedGasLimit": false
    },
    {
      "hash": "0x4dcdfe0f7251228092543dcc7079423e172e01aea34589b6d37c2c327e8c648a",
      "transactionType": "CREATE",
      "contractName": "MockERC20",
      "contractAddress": "0x9771348a9Ee8c0D6Aeeaeb1Bb695CCe5c3dCf0d3",
      "function": null,
      "arguments": [
        "DAI",
        "DAI"
      ],
      "transaction": {
        "type": "0x02",
        "from": "0xd0ee0f8c279500804098d364b107bd876cad7080",
        "gas": "0xad84e",
        "value": "0x0",
        "data": "0x60806040523480156200001157600080fd5b5060405162000ada38038062000ada833981016040819052620000349162000123565b818160036200004483826200021c565b5060046200005382826200021c565b5050505050620002e8565b634e487b7160e01b600052604160045260246000fd5b600082601f8301126200008657600080fd5b81516001600160401b0380821115620000a357620000a36200005e565b604051601f8301601f19908116603f01168101908282118183101715620000ce57620000ce6200005e565b81604052838152602092508683858801011115620000eb57600080fd5b600091505b838210156200010f5785820183015181830184015290820190620000f0565b600093810190920192909252949350505050565b600080604083850312156200013757600080fd5b82516001600160401b03808211156200014f57600080fd5b6200015d8683870162000074565b935060208501519150808211156200017457600080fd5b50620001838582860162000074565b9150509250929050565b600181811c90821680620001a257607f821691505b602082108103620001c357634e487b7160e01b600052602260045260246000fd5b50919050565b601f8211156200021757600081815260208120601f850160051c81016020861015620001f25750805b601f850160051c820191505b818110156200021357828155600101620001fe565b5050505b505050565b81516001600160401b038111156200023857620002386200005e565b62000250816200024984546200018d565b84620001c9565b602080601f8311600181146200028857600084156200026f5750858301515b600019600386901b1c1916600185901b17855562000213565b600085815260208120601f198616915b82811015620002b95788860151825594840194600190910190840162000298565b5085821015620002d85787850151600019600388901b60f8161c191681555b5050505050600190811b01905550565b6107e280620002f86000396000f3fe608060405234801561001057600080fd5b50600436106100a95760003560e01c806340c10f191161007157806340c10f191461012357806370a082311461013857806395d89b41146101615780639dc29fac14610169578063a9059cbb1461017c578063dd62ed3e1461018f57600080fd5b806306fdde03146100ae578063095ea7b3146100cc57806318160ddd146100ef57806323b872dd14610101578063313ce56714610114575b600080fd5b6100b66101c8565b6040516100c3919061062c565b60405180910390f35b6100df6100da366004610696565b61025a565b60405190151581526020016100c3565b6002545b6040519081526020016100c3565b6100df61010f3660046106c0565b610274565b604051601281526020016100c3565b610136610131366004610696565b610298565b005b6100f36101463660046106fc565b6001600160a01b031660009081526020819052604090205490565b6100b66102a6565b610136610177366004610696565b6102b5565b6100df61018a366004610696565b6102bf565b6100f361019d36600461071e565b6001600160a01b03918216600090815260016020908152604080832093909416825291909152205490565b6060600380546101d790610751565b80601f016020809104026020016040519081016040528092919081815260200182805461020390610751565b80156102505780601f1061022557610100808354040283529160200191610250565b820191906000526020600020905b81548152906001019060200180831161023357829003601f168201915b5050505050905090565b6000336102688185856102cd565b60019150505b92915050565b6000336102828582856102df565b61028d858585610362565b506001949350505050565b6102a282826103c1565b5050565b6060600480546101d790610751565b6102a282826103f7565b600033610268818585610362565b6102da838383600161042d565b505050565b6001600160a01b03838116600090815260016020908152604080832093861683529290522054600019811461035c578181101561034d57604051637dc7a0d960e11b81526001600160a01b038416600482015260248101829052604481018390526064015b60405180910390fd5b61035c8484848403600061042d565b50505050565b6001600160a01b03831661038c57604051634b637e8f60e11b815260006004820152602401610344565b6001600160a01b0382166103b65760405163ec442f0560e01b815260006004820152602401610344565b6102da838383610502565b6001600160a01b0382166103eb5760405163ec442f0560e01b815260006004820152602401610344565b6102a260008383610502565b6001600160a01b03821661042157604051634b637e8f60e11b815260006004820152602401610344565b6102a282600083610502565b6001600160a01b0384166104575760405163e602df0560e01b815260006004820152602401610344565b6001600160a01b03831661048157604051634a1406b160e11b815260006004820152602401610344565b6001600160a01b038085166000908152600160209081526040808320938716835292905220829055801561035c57826001600160a01b0316846001600160a01b03167f8c5be1e5ebec7d5bd14f71427d1e84f3dd0314c0f7b2291e5b200ac8c7c3b925846040516104f491815260200190565b60405180910390a350505050565b6001600160a01b03831661052d578060026000828254610522919061078b565b9091555061059f9050565b6001600160a01b038316600090815260208190526040902054818110156105805760405163391434e360e21b81526001600160a01b03851660048201526024810182905260448101839052606401610344565b6001600160a01b03841660009081526020819052604090209082900390555b6001600160a01b0382166105bb576002805482900390556105da565b6001600160a01b03821660009081526020819052604090208054820190555b816001600160a01b0316836001600160a01b03167fddf252ad1be2c89b69c2b068fc378daa952ba7f163c4a11628f55a4df523b3ef8360405161061f91815260200190565b60405180910390a3505050565b600060208083528351808285015260005b818110156106595785810183015185820160400152820161063d565b506000604082860101526040601f19601f8301168501019250505092915050565b80356001600160a01b038116811461069157600080fd5b919050565b600080604083850312156106a957600080fd5b6106b28361067a565b946020939093013593505050565b6000806000606084860312156106d557600080fd5b6106de8461067a565b92506106ec6020850161067a565b9150604084013590509250925092565b60006020828403121561070e57600080fd5b6107178261067a565b9392505050565b6000806040838503121561073157600080fd5b61073a8361067a565b91506107486020840161067a565b90509250929050565b600181811c9082168061076557607f821691505b60208210810361078557634e487b7160e01b600052602260045260246000fd5b50919050565b8082018082111561026e57634e487b7160e01b600052601160045260246000fdfea2646970667358221220e3bca9cddce75226594e13dd4303825299231e2f2a306e3952e6b6d33f1d63d364736f6c63430008140033000000000000000000000000000000000000000000000000000000000000004000000000000000000000000000000000000000000000000000000000000000800000000000000000000000000000000000000000000000000000000000000003444149000000000000000000000000000000000000000000000000000000000000000000000000000000000000000000000000000000000000000000000000034441490000000000000000000000000000000000000000000000000000000000",
        "nonce": "0xc",
        "accessList": []
      },
      "additionalContracts": [],
      "isFixedGasLimit": false
    },
    {
      "hash": "0x9f86f1b1cfdfae7afbef380daa6c85fbd7d58e26c0f99aa911426aa1b7af6e61",
      "transactionType": "CALL",
      "contractName": "MockERC20",
      "contractAddress": "0x9771348a9Ee8c0D6Aeeaeb1Bb695CCe5c3dCf0d3",
      "function": "mint(address,uint256)",
      "arguments": [
        "0xd0ee0F8c279500804098d364b107bd876caD7080",
        "100000000000000000000000"
      ],
      "transaction": {
        "type": "0x02",
        "from": "0xd0ee0f8c279500804098d364b107bd876cad7080",
        "to": "0x9771348a9ee8c0d6aeeaeb1bb695cce5c3dcf0d3",
        "gas": "0x186f3",
        "value": "0x0",
        "data": "0x40c10f19000000000000000000000000d0ee0f8c279500804098d364b107bd876cad708000000000000000000000000000000000000000000000152d02c7e14af6800000",
        "nonce": "0xd",
        "accessList": []
      },
      "additionalContracts": [],
      "isFixedGasLimit": false
    },
    {
      "hash": "0xfcb6afdac324655ef070db7b27795a6b61bfee2f27306f0872967b446ab73a9a",
      "transactionType": "CREATE",
      "contractName": "MockChainlinkOracle",
      "contractAddress": "0x1524432e4543ce68cF287b03F6b18c56B17Ed05C",
      "function": null,
      "arguments": null,
      "transaction": {
        "type": "0x02",
        "from": "0xd0ee0f8c279500804098d364b107bd876cad7080",
        "gas": "0x20fdb",
        "value": "0x0",
        "data": "0x608060405234801561001057600080fd5b5060ea8061001f6000396000f3fe6080604052348015600f57600080fd5b5060043610603c5760003560e01c806391b7f5ed146041578063a035b1fe146053578063feaf968c14606e575b600080fd5b6051604c366004609c565b600055565b005b605b60005481565b6040519081526020015b60405180910390f35b60008054604080518381526020810192909252810182905260608101829052608081019190915260a0016065565b60006020828403121560ad57600080fd5b503591905056fea26469706673582212201165f678f9e7f3e05043d250f4ac4434d4310ba4fdc3f6c33fd329c7cfb6228664736f6c63430008140033",
        "nonce": "0xe",
        "accessList": []
      },
      "additionalContracts": [],
      "isFixedGasLimit": false
    },
    {
      "hash": "0x9f1513a2927e7a50db5de67d1381c660717302ae28757634018147769488e604",
      "transactionType": "CALL",
      "contractName": "MockChainlinkOracle",
      "contractAddress": "0x1524432e4543ce68cF287b03F6b18c56B17Ed05C",
      "function": "setPrice(uint256)",
      "arguments": [
        "1000000000000000000"
      ],
      "transaction": {
        "type": "0x02",
        "from": "0xd0ee0f8c279500804098d364b107bd876cad7080",
        "to": "0x1524432e4543ce68cf287b03f6b18c56b17ed05c",
        "gas": "0xf8d1",
        "value": "0x0",
        "data": "0x91b7f5ed0000000000000000000000000000000000000000000000000de0b6b3a7640000",
        "nonce": "0xf",
        "accessList": []
      },
      "additionalContracts": [],
      "isFixedGasLimit": false
    },
    {
      "hash": "0x8b4620873452013bd81161b83dcb1adbcaa9c207e62c74e3b7d451e47558b975",
      "transactionType": "CREATE",
      "contractName": "MockChainlinkOracle",
      "contractAddress": "0x19AB203aC898FBd21B5972Cbd08BD80264369375",
      "function": null,
      "arguments": null,
      "transaction": {
        "type": "0x02",
        "from": "0xd0ee0f8c279500804098d364b107bd876cad7080",
        "gas": "0x20fdb",
        "value": "0x0",
        "data": "0x608060405234801561001057600080fd5b5060ea8061001f6000396000f3fe6080604052348015600f57600080fd5b5060043610603c5760003560e01c806391b7f5ed146041578063a035b1fe146053578063feaf968c14606e575b600080fd5b6051604c366004609c565b600055565b005b605b60005481565b6040519081526020015b60405180910390f35b60008054604080518381526020810192909252810182905260608101829052608081019190915260a0016065565b60006020828403121560ad57600080fd5b503591905056fea26469706673582212201165f678f9e7f3e05043d250f4ac4434d4310ba4fdc3f6c33fd329c7cfb6228664736f6c63430008140033",
        "nonce": "0x10",
        "accessList": []
      },
      "additionalContracts": [],
      "isFixedGasLimit": false
    },
    {
      "hash": "0x9124c09196bf1f9205757076472b59fb82346833ecbd49f79072c479db7a7a21",
      "transactionType": "CALL",
      "contractName": "MockChainlinkOracle",
      "contractAddress": "0x19AB203aC898FBd21B5972Cbd08BD80264369375",
      "function": "setPrice(uint256)",
      "arguments": [
        "1000000000000000000"
      ],
      "transaction": {
        "type": "0x02",
        "from": "0xd0ee0f8c279500804098d364b107bd876cad7080",
        "to": "0x19ab203ac898fbd21b5972cbd08bd80264369375",
        "gas": "0xf8d1",
        "value": "0x0",
        "data": "0x91b7f5ed0000000000000000000000000000000000000000000000000de0b6b3a7640000",
        "nonce": "0x11",
        "accessList": []
      },
      "additionalContracts": [],
      "isFixedGasLimit": false
    },
    {
      "hash": "0xedf4a9f8eac634ec807f1a6c7b6f98a888521e1742f917f5f32d6c038003d678",
      "transactionType": "CREATE",
      "contractName": "MockChainlinkOracle",
      "contractAddress": "0xfdf2bF3688F0AF7B0Baef04afde43FBC72530b7f",
      "function": null,
      "arguments": null,
      "transaction": {
        "type": "0x02",
        "from": "0xd0ee0f8c279500804098d364b107bd876cad7080",
        "gas": "0x20fdb",
        "value": "0x0",
        "data": "0x608060405234801561001057600080fd5b5060ea8061001f6000396000f3fe6080604052348015600f57600080fd5b5060043610603c5760003560e01c806391b7f5ed146041578063a035b1fe146053578063feaf968c14606e575b600080fd5b6051604c366004609c565b600055565b005b605b60005481565b6040519081526020015b60405180910390f35b60008054604080518381526020810192909252810182905260608101829052608081019190915260a0016065565b60006020828403121560ad57600080fd5b503591905056fea26469706673582212201165f678f9e7f3e05043d250f4ac4434d4310ba4fdc3f6c33fd329c7cfb6228664736f6c63430008140033",
        "nonce": "0x12",
        "accessList": []
      },
      "additionalContracts": [],
      "isFixedGasLimit": false
    },
    {
      "hash": "0xa4888f98ab0d8f08d95b55892b65ffded58629c59412be04e60323af1c638f63",
      "transactionType": "CALL",
      "contractName": "MockChainlinkOracle",
      "contractAddress": "0xfdf2bF3688F0AF7B0Baef04afde43FBC72530b7f",
      "function": "setPrice(uint256)",
      "arguments": [
        "1000000000000000000"
      ],
      "transaction": {
        "type": "0x02",
        "from": "0xd0ee0f8c279500804098d364b107bd876cad7080",
        "to": "0xfdf2bf3688f0af7b0baef04afde43fbc72530b7f",
        "gas": "0xf8d1",
        "value": "0x0",
        "data": "0x91b7f5ed0000000000000000000000000000000000000000000000000de0b6b3a7640000",
        "nonce": "0x13",
        "accessList": []
      },
      "additionalContracts": [],
      "isFixedGasLimit": false
    }
  ],
  "receipts": [
    {
      "transactionHash": "0x7966b0c673bf3ff52cf548c742d37def51fbb604b1cc34d56d77c10b20cb59ec",
      "transactionIndex": "0x0",
      "blockHash": "0x4dfb01f6f4963601186b86ca8b59976f0466f27768a6a3c7a7de04af0534f343",
      "blockNumber": "0x47ff98",
      "from": "0xd0ee0F8c279500804098d364b107bd876caD7080",
      "to": "0xf66423533d8bA9ce2ACDf2F5F07F4fb9106e9AFb",
      "cumulativeGasUsed": "0x548c",
      "gasUsed": "0x548c",
      "contractAddress": null,
      "logs": [],
      "status": "0x1",
      "logsBloom": "0x00000000000000000000000000000000000000000000000000000000000000000000000000000000000000000000000000000000000000000000000000000000000000000000000000000000000000000000000000000000000000000000000000000000000000000000000000000000000000000000000000000000000000000000000000000000000000000000000000000000000000000000000000000000000000000000000000000000000000000000000000000000000000000000000000000000000000000000000000000000000000000000000000000000000000000000000000000000000000000000000000000000000000000000000000000000",
      "type": "0x2",
      "effectiveGasPrice": "0xb2d05e02"
    },
    {
      "transactionHash": "0x16057232c174fbf62a1ab594ad344e3303816cff045f14fe015cf6bac1b102ed",
      "transactionIndex": "0x0",
      "blockHash": "0xd167badbda9d81ca0e189bc71da46b85c6b98d0202a9880976650c269f1ce7ce",
      "blockNumber": "0x47ff99",
      "from": "0xd0ee0F8c279500804098d364b107bd876caD7080",
      "to": null,
      "cumulativeGasUsed": "0x85871",
      "gasUsed": "0x85871",
      "contractAddress": "0xD7e2b15E06C571155093257D08636b96bB8B1222",
      "logs": [],
      "status": "0x1",
      "logsBloom": "0x00000000000000000000000000000000000000000000000000000000000000000000000000000000000000000000000000000000000000000000000000000000000000000000000000000000000000000000000000000000000000000000000000000000000000000000000000000000000000000000000000000000000000000000000000000000000000000000000000000000000000000000000000000000000000000000000000000000000000000000000000000000000000000000000000000000000000000000000000000000000000000000000000000000000000000000000000000000000000000000000000000000000000000000000000000000",
      "type": "0x2",
      "effectiveGasPrice": "0xb2d05e02"
    },
    {
      "transactionHash": "0x9f86f1b1cfdfae7afbef380daa6c85fbd7d58e26c0f99aa911426aa1b7af6e61",
      "transactionIndex": "0x0",
      "blockHash": "0xda1293a3536ad470012688806c9f52773161ee501cb2086005180f3904a49219",
      "blockNumber": "0x47ff9a",
      "from": "0xd0ee0F8c279500804098d364b107bd876caD7080",
      "to": "0x9771348a9Ee8c0D6Aeeaeb1Bb695CCe5c3dCf0d3",
      "cumulativeGasUsed": "0x548c",
      "gasUsed": "0x548c",
      "contractAddress": null,
      "logs": [],
      "status": "0x1",
      "logsBloom": "0x00000000000000000000000000000000000000000000000000000000000000000000000000000000000000000000000000000000000000000000000000000000000000000000000000000000000000000000000000000000000000000000000000000000000000000000000000000000000000000000000000000000000000000000000000000000000000000000000000000000000000000000000000000000000000000000000000000000000000000000000000000000000000000000000000000000000000000000000000000000000000000000000000000000000000000000000000000000000000000000000000000000000000000000000000000000",
      "type": "0x2",
      "effectiveGasPrice": "0xb2d05e02"
    },
    {
      "transactionHash": "0xf8fa612abaf4519f22c2a96122f425b6bed8e83f034ce7b7849f2a33814f72f7",
      "transactionIndex": "0x0",
      "blockHash": "0x67d3a3159b24b5ff56166c20a8dceebf966e3ea6f56eed4137154c4303bc1c27",
      "blockNumber": "0x47ff9b",
      "from": "0xd0ee0F8c279500804098d364b107bd876caD7080",
      "to": null,
      "cumulativeGasUsed": "0x85871",
      "gasUsed": "0x85871",
      "contractAddress": "0x7117e2E8fb018D96C74Fa6D50dE717F6814A6A5E",
      "logs": [],
      "status": "0x1",
      "logsBloom": "0x00000000000000000000000000000000000000000000000000000000000000000000000000000000000000000000000000000000000000000000000000000000000000000000000000000000000000000000000000000000000000000000000000000000000000000000000000000000000000000000000000000000000000000000000000000000000000000000000000000000000000000000000000000000000000000000000000000000000000000000000000000000000000000000000000000000000000000000000000000000000000000000000000000000000000000000000000000000000000000000000000000000000000000000000000000000",
      "type": "0x2",
      "effectiveGasPrice": "0xb2d05e02"
    },
    {
      "transactionHash": "0xfcb6afdac324655ef070db7b27795a6b61bfee2f27306f0872967b446ab73a9a",
      "transactionIndex": "0x0",
      "blockHash": "0x6dd73750c17210a72d27d84b57faf29e4e041e7ebbc0f053f2512a12eee05c2e",
      "blockNumber": "0x47ff9c",
      "from": "0xd0ee0F8c279500804098d364b107bd876caD7080",
      "to": null,
      "cumulativeGasUsed": "0x1961d",
      "gasUsed": "0x1961d",
      "contractAddress": "0x9771348a9Ee8c0D6Aeeaeb1Bb695CCe5c3dCf0d3",
      "logs": [],
      "status": "0x1",
      "logsBloom": "0x00000000000000000000000000000000000000000000000000000000000000000000000000000000000000000000000000000000000000000000000000000000000000000000000000000000000000000000000000000000000000000000000000000000000000000000000000000000000000000000000000000000000000000000000000000000000000000000000000000000000000000000000000000000000000000000000000000000000000000000000000000000000000000000000000000000000000000000000000000000000000000000000000000000000000000000000000000000000000000000000000000000000000000000000000000000",
      "type": "0x2",
      "effectiveGasPrice": "0xb2d05e02"
    },
    {
      "transactionHash": "0x9f1513a2927e7a50db5de67d1381c660717302ae28757634018147769488e604",
      "transactionIndex": "0x0",
      "blockHash": "0xc2b5c639c8b4906e62a04a32caeaa0485278731907587f60b25cc3aa360871ef",
      "blockNumber": "0x47ff9d",
      "from": "0xd0ee0F8c279500804098d364b107bd876caD7080",
      "to": "0x1524432e4543ce68cF287b03F6b18c56B17Ed05C",
      "cumulativeGasUsed": "0x5310",
      "gasUsed": "0x5310",
      "contractAddress": null,
      "logs": [],
      "status": "0x1",
      "logsBloom": "0x00000000000000000000000000000000000000000000000000000000000000000000000000000000000000000000000000000000000000000000000000000000000000000000000000000000000000000000000000000000000000000000000000000000000000000000000000000000000000000000000000000000000000000000000000000000000000000000000000000000000000000000000000000000000000000000000000000000000000000000000000000000000000000000000000000000000000000000000000000000000000000000000000000000000000000000000000000000000000000000000000000000000000000000000000000000",
      "type": "0x2",
      "effectiveGasPrice": "0xb2d05e02"
    },
    {
      "transactionHash": "0x9124c09196bf1f9205757076472b59fb82346833ecbd49f79072c479db7a7a21",
      "transactionIndex": "0x0",
      "blockHash": "0xd47a1cf339b27ac4cc885c406b710d3bcec0476e9a5c3c7c0e8bb119147efe14",
      "blockNumber": "0x47ff9e",
      "from": "0xd0ee0F8c279500804098d364b107bd876caD7080",
      "to": "0x19AB203aC898FBd21B5972Cbd08BD80264369375",
      "cumulativeGasUsed": "0x5310",
      "gasUsed": "0x5310",
      "contractAddress": null,
      "logs": [],
      "status": "0x1",
      "logsBloom": "0x00000000000000000000000000000000000000000000000000000000000000000000000000000000000000000000000000000000000000000000000000000000000000000000000000000000000000000000000000000000000000000000000000000000000000000000000000000000000000000000000000000000000000000000000000000000000000000000000000000000000000000000000000000000000000000000000000000000000000000000000000000000000000000000000000000000000000000000000000000000000000000000000000000000000000000000000000000000000000000000000000000000000000000000000000000000",
      "type": "0x2",
      "effectiveGasPrice": "0xb2d05e02"
    },
    {
      "transactionHash": "0x4dcdfe0f7251228092543dcc7079423e172e01aea34589b6d37c2c327e8c648a",
      "transactionIndex": "0x0",
      "blockHash": "0xce5662b4b76e5dfa48376be8711ae96cb58d7d9b97a8a212598d9e9c8655513c",
      "blockNumber": "0x47ff9f",
      "from": "0xd0ee0F8c279500804098d364b107bd876caD7080",
      "to": null,
      "cumulativeGasUsed": "0x85859",
      "gasUsed": "0x85859",
      "contractAddress": "0xe16C522d5282A911ae2491c725700A5f42FE7EEF",
      "logs": [],
      "status": "0x1",
      "logsBloom": "0x00000000000000000000000000000000000000000000000000000000000000000000000000000000000000000000000000000000000000000000000000000000000000000000000000000000000000000000000000000000000000000000000000000000000000000000000000000000000000000000000000000000000000000000000000000000000000000000000000000000000000000000000000000000000000000000000000000000000000000000000000000000000000000000000000000000000000000000000000000000000000000000000000000000000000000000000000000000000000000000000000000000000000000000000000000000",
      "type": "0x2",
      "effectiveGasPrice": "0xb2d05e02"
    },
    {
      "transactionHash": "0xfcf4ee20b4a52ab00cfbef36da25e75ceef075fad6cb72bb668d69322bbc910e",
      "transactionIndex": "0x0",
      "blockHash": "0xe33bc823848a2c21ec91f47141e387263eeb231a26a399730c3dd9b4077b0d2a",
      "blockNumber": "0x47ffa0",
      "from": "0xd0ee0F8c279500804098d364b107bd876caD7080",
      "to": "0xC6FA47f3892bdcBd1cA002200aDFef172EC0699E",
      "cumulativeGasUsed": "0x548c",
      "gasUsed": "0x548c",
      "contractAddress": null,
      "logs": [],
      "status": "0x1",
      "logsBloom": "0x00000000000000000000000000000000000000000000000000000000000000000000000000000000000000000000000000000000000000000000000000000000000000000000000000000000000000000000000000000000000000000000000000000000000000000000000000000000000000000000000000000000000000000000000000000000000000000000000000000000000000000000000000000000000000000000000000000000000000000000000000000000000000000000000000000000000000000000000000000000000000000000000000000000000000000000000000000000000000000000000000000000000000000000000000000000",
      "type": "0x2",
      "effectiveGasPrice": "0xb2d05e02"
    },
    {
      "transactionHash": "0xa4888f98ab0d8f08d95b55892b65ffded58629c59412be04e60323af1c638f63",
      "transactionIndex": "0x0",
      "blockHash": "0x780ac99141857367b9b5cd7c7e1e7bd22cc371f6dfef5b04a9c8401836e3ace1",
      "blockNumber": "0x47ffa1",
      "from": "0xd0ee0F8c279500804098d364b107bd876caD7080",
      "to": "0xfdf2bF3688F0AF7B0Baef04afde43FBC72530b7f",
      "cumulativeGasUsed": "0x5310",
      "gasUsed": "0x5310",
      "contractAddress": null,
      "logs": [],
      "status": "0x1",
      "logsBloom": "0x00000000000000000000000000000000000000000000000000000000000000000000000000000000000000000000000000000000000000000000000000000000000000000000000000000000000000000000000000000000000000000000000000000000000000000000000000000000000000000000000000000000000000000000000000000000000000000000000000000000000000000000000000000000000000000000000000000000000000000000000000000000000000000000000000000000000000000000000000000000000000000000000000000000000000000000000000000000000000000000000000000000000000000000000000000000",
      "type": "0x2",
      "effectiveGasPrice": "0xb2d05e02"
    },
    {
      "transactionHash": "0xedf4a9f8eac634ec807f1a6c7b6f98a888521e1742f917f5f32d6c038003d678",
      "transactionIndex": "0x0",
      "blockHash": "0x4e6b207706941dbe2aab75be426230c2a6ef4d61af7bd0b482d4b2a5796d17a3",
      "blockNumber": "0x47ffa2",
      "from": "0xd0ee0F8c279500804098d364b107bd876caD7080",
      "to": null,
      "cumulativeGasUsed": "0x1961d",
      "gasUsed": "0x1961d",
      "contractAddress": "0xfdf2bF3688F0AF7B0Baef04afde43FBC72530b7f",
      "logs": [],
      "status": "0x1",
      "logsBloom": "0x00000000000000000000000000000000000000000000000000000000000000000000000000000000000000000000000000000000000000000000000000000000000000000000000000000000000000000000000000000000000000000000000000000000000000000000000000000000000000000000000000000000000000000000000000000000000000000000000000000000000000000000000000000000000000000000000000000000000000000000000000000000000000000000000000000000000000000000000000000000000000000000000000000000000000000000000000000000000000000000000000000000000000000000000000000000",
      "type": "0x2",
      "effectiveGasPrice": "0xb2d05e02"
    },
    {
      "transactionHash": "0x8b4620873452013bd81161b83dcb1adbcaa9c207e62c74e3b7d451e47558b975",
      "transactionIndex": "0x0",
      "blockHash": "0x9e0210b4422412ff27ae7bce089cf45de8dc85bfc7aaf7e8d5ba5ff29c315edc",
      "blockNumber": "0x47ffa3",
      "from": "0xd0ee0F8c279500804098d364b107bd876caD7080",
      "to": null,
      "cumulativeGasUsed": "0x1961d",
      "gasUsed": "0x1961d",
      "contractAddress": "0xB7b006e8bDe998206C72a9aB456495b1998D42E0",
      "logs": [],
      "status": "0x1",
      "logsBloom": "0x00000000000000000000000000000000000000000000000000000000000000000000000000000000000000000000000000000000000000000000000000000000000000000000000000000000000000000000000000000000000000000000000000000000000000000000000000000000000000000000000000000000000000000000000000000000000000000000000000000000000000000000000000000000000000000000000000000000000000000000000000000000000000000000000000000000000000000000000000000000000000000000000000000000000000000000000000000000000000000000000000000000000000000000000000000000",
      "type": "0x2",
      "effectiveGasPrice": "0xb2d05e02"
    }
  ],
  "libraries": [],
  "pending": [],
  "returns": {},
  "timestamp": 1700316744,
  "chain": 11155111,
  "multi": false,
  "commit": "13acdcd"
}